:100000000C942A000C94C3270C94F0270C941D2800
:100010000C9447000C9447000C9447000C948313F5
:100020000C9447000C9447000C9447000C94D13278
:100030000C9447000C9407340C9447000C94470030
:100040000C9447000C9447000C9447000C94470014
:100050000C94470011241FBECFE5D8E0DEBFCDBF12
:1000600012E0A0E6B0E0E6E6FEE602C005900D92E2
:10007000A830B107D9F717E0A8E0B2E001C01D929F
:10008000A535B107E1F70E943B340C9431370C944D
:100090000000EF92FF920F931F937B018C0120E0F1
:1000A00030E040E05FE40E94F50388238CF0C80153
:1000B000B70120E030E040E05FE40E94C1010E940F
:1000C000E3049B01AC01205030404040504806C042
:1000D000C801B7010E94E3049B01AC01B901CA0148
:1000E0001F910F91FF90EF900895A0E0B0E0EBE733
:1000F000F0E00C94AC36DC012B01FA019C919230BB
:1001000008F439C1EB018881823008F433C194309E
:1001100069F4843009F02FC111969C91119789815F
:10012000981709F428C1A3EEB0E025C1843009F482
:1001300021C18230A9F4923009F01DC19A01AD01AC
:1001400088E0EA010990AE01E90109929E0181501F
:10015000C1F7E201898111969C918923818308C1AD
:10016000923009F407C112962D903C901397EB0141
:100170008A819B811496AD90BD90CD90DC901797AD
:10018000EC80FD800E811F819101281B390BB90184
:1001900037FF04C066277727621B730B6032710537
:1001A0000CF061C0121613066CF537014801062EDB
:1001B00004C096948794779467940A94D2F721E0C8
:1001C00030E040E050E004C0220F331F441F551FB1
:1001D0006A95D2F721503040404050402E213F21B7
:1001E00040235123211531054105510521F021E01E
:1001F00030E040E050E079018A01E628F72808293C
:1002000019293CC0232BD1F1260E371E350146019A
:10021000062E04C096948794779467940A94D2F734
:1002200021E030E040E050E004C0220F331F441FC3
:10023000551F6A95D2F721503040404050402A2146
:100240003B214C215D21211531054105510521F04E
:1002500021E030E040E050E059016A01A628B728CB
:10026000C828D9280BC0821593052CF01C01AA249C
:10027000BB24650103C0EE24FF24870111969C91E5
:10028000D20111968C91981709F445C0992339F041
:10029000A80197012A193B094C095D0906C0A6016E
:1002A00095012E193F09400B510B57FD08C01182D3
:1002B0003382228224833583468357831DC081E0A5
:1002C00081833382228288279927DC01821B930B4A
:1002D000A40BB50B84839583A683B7830DC0220F2F
:1002E000331F441F551F24833583468357838281E0
:1002F000938101979383828324813581468157813D
:10030000DA01C9010197A109B1098F5F9F4FAF4F72
:10031000BF4328F30BC0918333822282EA0CFB1C7B
:100320000C1D1D1DE482F5820683178383E0808304
:10033000248135814681578157FF1AC0C901AA27F8
:1003400097FDA095BA2F81709070A070B0705695EF
:10035000479537952795822B932BA42BB52B848318
:100360009583A683B7838281938101969383828349
:10037000DF0101C0D201CD01CDB7DEB7E2E10C94BF
:10038000C836A0E2B0E0E7ECF1E00C94B83669833F
:100390007A838B839C832D833E834F835887E9E048
:1003A000EE2EF12CEC0EFD1ECE010196B7010E943F
:1003B0005B068E010F5E1F4FCE010596B8010E94AD
:1003C0005B068A8991E089278A8BC701B801AE0153
:1003D000475E5F4F0E9475000E948605A096E6E08A
:1003E0000C94D436A0E2B0E0E8EFF1E00C94B8361B
:1003F00069837A838B839C832D833E834F835887C5
:10040000F9E0EF2EF12CEC0EFD1ECE010196B701A6
:100410000E945B068E010F5E1F4FCE010596B8014C
:100420000E945B06C701B801AE01475E5F4F0E94A4
:1004300075000E948605A096E6E00C94D436A0E2F2
:10044000B0E0E5E2F2E00C94AC3669837A838B830A
:100450009C832D833E834F835887CE010196BE0136
:10046000675F7F4F0E945B06CE010596BE016F5EFF
:100470007F4F0E945B069985923088F0898982308F
:10048000C8F0943019F4823051F404C0843029F457
:10049000923081F483EE90E0C6C0923049F420E0BF
:1004A0009A858A89981321E02A87CE010996BBC0D4
:1004B000823049F420E09A858A89981321E02A8BBA
:1004C000CE014196B0C02D843E844F8458886D88FB
:1004D0007E888F88988CEE24FF248701AA24BB2471
:1004E000650140E050E060E070E0E0E0F0E0C10174
:1004F00081709070892BE9F0E60CF71C081D191D1E
:100500009A01AB012A0D3B1D4C1D5D1D80E090E062
:10051000A0E0B0E0E614F7040805190520F481E036
:1005200090E0A0E0B0E0BA01A901480F591F6A1F8E
:100530007B1FAA0CBB1CCC1CDD1C97FE08C081E0F5
:1005400090E0A0E0B0E0A82AB92ACA2ADB2A3196B6
:10055000E032F10549F0660C771C881C991C569412
:10056000479437942794C3CFFA85EA892B893C892D
:100570008B859C85280F391F2E5F3F4F17C0CA01FE
:1005800081709070892B61F016950795F794E79428
:1005900080E090E0A0E0B0E8E82AF92A0A2B1B2BC3
:1005A00076956795579547952F5F3F4F77FDE7CF36
:1005B0000CC0440F551F661F771F17FD4160EE0CDE
:1005C000FF1C001F111F21503040403090E05907A0
:1005D00090E0690790E4790760F32B8F3C8FDB0193
:1005E000CA018F779070A070B07080349105A1051A
:1005F000B10561F447FD0AC0E114F10401051105DC
:1006000029F0405C5F4F6F4F7F4F40781A8EFE1786
:1006100011F081E08A8F4D8F5E8F6F8F78A383E01A
:10062000898FCE0149960E948605A096E2E10C943E
:10063000C836A8E1B0E0EFE1F3E00C94B43669838A
:100640007A838B839C832D833E834F835887B9E0C5
:10065000EB2EF12CEC0EFD1ECE010196B7010E948F
:100660005B068E010F5E1F4FCE010596B8010E94FA
:100670005B062985223008F47EC03989323010F4B7
:10068000B8017CC08A859A8989278A87243011F02D
:10069000223031F4231709F06EC063EE70E06EC0B3
:1006A000343039F41D861E861F86188A1C861B86E8
:1006B00004C0323021F484E08987B7015FC02B8504
:1006C0003C858B899C89281B390B3C872B87ED84C3
:1006D000FE840F851889AD88BE88CF88D88CEA142F
:1006E000FB040C051D0540F4EE0CFF1C001F111F40
:1006F000215030403C872B8720E030E040E050E044
:1007000080E090E0A0E0B0E460E070E0EA14FB0478
:100710000C051D0540F0282B392B4A2B5B2BEA18C2
:10072000FB080C091D09B695A79597958795EE0CC2
:10073000FF1C001F111F6F5F7F4F6F31710531F775
:10074000DA01C9018F779070A070B0708034910584
:10075000A105B10561F427FD0AC0E114F10401050A
:10076000110529F0205C3F4F4F4F5F4F20782D87B8
:100770003E874F87588BBE01675F7F4FCB010E943A
:1007800086056896EAE00C94D036A8E1B0E0EBEC80
:10079000F3E00C94B83669837A838B839C832D8332
:1007A0003E834F83588789E0E82EF12CEC0EFD1E26
:1007B000CE010196B7010E945B068E010F5E1F4FAE
:1007C000CE010596B8010E945B068985823040F013
:1007D0008989823028F0C701B8010E94D30601C080
:1007E0008FEF6896E6E00C94D436A8E1B0E0EBEF2A
:1007F000F3E00C94B83669837A838B839C832D83D2
:100800003E834F83588789E0E82EF12CEC0EFD1EC5
:10081000CE010196B7010E945B068E010F5E1F4F4D
:10082000CE010596B8010E945B068985823040F0B2
:100830008989823028F0C701B8010E94D30601C01F
:100840008FEF6896E6E00C94D436A8E1B0E0EBE2D6
:10085000F4E00C94B83669837A838B839C832D8370
:100860003E834F83588789E0E82EF12CEC0EFD1E65
:10087000CE010196B7010E945B068E010F5E1F4FED
:10088000CE010596B8010E945B068985823040F052
:100890008989823028F0C701B8010E94D30601C0BF
:1008A00081E06896E6E00C94D436A8E1B0E0EBE590
:1008B000F4E00C94B83669837A838B839C832D8310
:1008C0003E834F83588789E0E82EF12CEC0EFD1E05
:1008D000CE010196B7010E945B068E010F5E1F4F8D
:1008E000CE010596B8010E945B068985823040F0F2
:1008F0008989823028F0C701B8010E94D30601C05F
:1009000081E06896E6E00C94D436A8E0B0E0EBE82D
:10091000F4E00C94B5369B01AC0183E08983DA01E5
:10092000C9018827B7FD83959927AA27BB27B82E29
:10093000211531054105510519F482E089833AC03A
:100940008823A9F0203080E0380780E0480780E85D
:10095000580729F460E070E080E09FEC30C0EE249E
:10096000FF248701E21AF30A040B150B02C0790178
:100970008A018EE1C82ED12CDC82CB82ED82FE82F0
:100980000F831887C801B7010E9437050197181611
:10099000190684F4082E04C0EE0CFF1C001F111F62
:1009A0000A94D2F7ED82FE820F831887C81AD90AFB
:1009B000DC82CB82BA82CE0101960E9486052896FF
:1009C000E9E00C94D136ACE0B0E0E9EEF4E00C9450
:1009D000BC3669837A838B839C83CE010196BE01EA
:1009E0006B5F7F4F0E945B068D81823061F18230A8
:1009F00050F1843021F48E81882351F12EC02F8153
:100A0000388537FD20C06E812F3131051CF06623FB
:100A1000F9F023C08EE190E0821B930B29853A8583
:100A20004B855C8504C056954795379527958A95E3
:100A3000D2F76623B1F050954095309521953F4F00
:100A40004F4F5F4F0EC020E030E040E050E009C063
:100A50002FEF3FEF4FEF5FE704C020E030E040E0D2
:100A600050E8B901CA012C96E2E00C94D836EF9216
:100A7000FF920F931F937B018C0180E0E81680E0CA
:100A8000F80681E0080780E0180788F48FEFE81681
:100A9000F1040105110531F028F088E090E0A0E0B4
:100AA000B0E017C080E090E0A0E0B0E012C080E0CD
:100AB000E81680E0F80680E0080781E0180728F0D3
:100AC00088E190E0A0E0B0E004C080E190E0A0E028
:100AD000B0E020E230E040E050E0281B390B4A0B48
:100AE0005B0B04C016950795F794E7948A95D2F7A7
:100AF000F701E551FF4F8081281B31094109510958
:100B0000C9011F910F91FF90EF900895DF92EF922E
:100B1000FF920F931F93FC01E480F58006811781FB
:100B2000D1808081823048F480E090E0A0E1B0E0A4
:100B3000E82AF92A0A2B1B2BA5C0843009F49FC090
:100B4000823021F4EE24FF24870105C0E114F10472
:100B50000105110519F4E0E0F0E096C062817381AF
:100B60009FEF623879070CF05BC022E83FEF261B4D
:100B7000370B2A3131052CF020E030E040E050E026
:100B80002AC0B801A701022E04C076956795579533
:100B900047950A94D2F781E090E0A0E0B0E004C06D
:100BA000880F991FAA1FBB1F2A95D2F70197A10989
:100BB000B1098E219F21A023B1230097A105B10582
:100BC00021F081E090E0A0E0B0E09A01AB01282B99
:100BD000392B4A2B5B2BDA01C9018F779070A070FB
:100BE000B07080349105A105B10539F427FF09C023
:100BF000205C3F4F4F4F5F4F04C0215C3F4F4F4F32
:100C00005F4FE0E0F0E02030A0E03A07A0E04A07C4
:100C1000A0E45A0710F0E1E0F0E079018A0127C072
:100C20006038710564F5FB01E158FF4FD801C70139
:100C30008F779070A070B07080349105A105B105D8
:100C400039F4E7FE0DC080E490E0A0E0B0E004C01D
:100C50008FE390E0A0E0B0E0E80EF91E0A1F1B1F32
:100C600017FF05C016950795F794E794319687E02E
:100C700016950795F794E7948A95D1F705C0EE2469
:100C8000FF248701EFEFF0E06E2F679566276795E9
:100C9000902F9F77D794DD24D7948E2F8695492F58
:100CA000462B582F5D29B701CA011F910F91FF9064
:100CB000EF90DF900895FC01DB014081518122819A
:100CC000622F6F7770E0221F2227221F9381892FC6
:100CD000880F822B282F30E0991F9927991F119692
:100CE0009C93119721153105A9F541155105610511
:100CF000710511F482E037C082E89FEF13969C9350
:100D00008E9312979A01AB0167E0220F331F441FA5
:100D1000551F6A95D1F783E08C930DC0220F331FC6
:100D2000441F551F12968D919C911397019713960E
:100D30009C938E931297203080E0380780E048071C
:100D400080E4580758F314962D933D934D935C938C
:100D5000179708952F3F310579F441155105610525
:100D6000710519F484E08C93089564FF03C081E059
:100D70008C9312C01C9210C02F57304013963C9396
:100D80002E93129783E08C9387E0440F551F661FC4
:100D9000771F8A95D1F7706414964D935D936D9388
:100DA0007C93179708951F93DC01FB019C9192306F
:100DB00008F447C08081823008F443C0943051F475
:100DC00011961C91843099F58181682F70E0611B28
:100DD00071093FC0843021F0923031F48230B9F192
:100DE0008181882389F12DC011961C911197823041
:100DF000F1F081811817D9F412962D913C91139737
:100E0000828193818217930794F028173907BCF0E9
:100E100014968D919D910D90BC91A02D24813581CA
:100E200046815781281739074A075B0718F41123B1
:100E300041F00AC082179307A407B50740F41123B5
:100E400019F061E070E005C06FEF7FEF02C060E075
:100E500070E0CB011F910895AF92BF92CF92DF92C5
:100E6000EF92FF920F93DF93CF930F92CDB7DEB740
:100E700089838AE062E040E00E940C1490930B02A8
:100E800080930A0280EB97E020E630E0EAE0F2E0AF
:100E9000B90145E550E09F010981EE24FF24CC24EF
:100EA000DD24AA24BB240E94321B83E797E028E6B6
:100EB00030E0EAE0F2E0B90145E550E09F01098148
:100EC000EE24FF24CC24DD24AA24BB240E94321B60
:100ED0000F90CF91DF910F91FF90EF90DF90CF9027
:100EE000BF90AF900895DF93CF9300D000D000D093
:100EF000CDB7DEB79E838D831C821B821A82198236
:100F000027C0ED81FE81808191819E012D5F3F4F41
:100F1000B90140E050E020E00E94D714813019F080
:100F200081E08A8312C08A81882351F40FB6F89435
:100F30000F92809109028F5F809309020F900FBE7C
:100F40008B819C8101969C838B8389818F5F8983B0
:100F500089818330B4F288EC90E00E94EC1CCFCF02
:100F6000DF93CF93CDB7DEB727970FB6F894DEBFE8
:100F70000FBECDBF9F838E831B821A8219822FC022
:100F8000EE81FF81808191819E012C5F3F4FB901ED
:100F900040E050E020E00E94E515813001F52C8111
:100FA0003D818A819B812817390739F081E0898347
:100FB0008C819D819B838A830DC08981882351F414
:100FC0000FB6F8940F92809108028F5F8093080209
:100FD0000F900FBE8A819B8101969B838A83EE814D
:100FE000FF81808191810E945617882349F684EB06
:100FF00090E00E94EC1CF3CFDF93CF930F92CDB71C
:10100000DEB780910802882321F0809109028823AD
:1010100011F4198202C081E08983109208021092B3
:10102000090289810F90CF91DF910895DF93CF93CB
:10103000CDB7DEB727970FB6F894DEBF0FBECDBF92
:101040009D838C836E834F838AE190E00E942E0EF5
:101050009A83898389819A81009709F46FC080916E
:101060000C0290910D02009741F489819A8190932E
:101070000D0280930C020E947D0A8E81823010F056
:1010800081E08E83E981FA81118E108EE981FA81E7
:101090008E81868BE981FA818F81878BE981FA8144
:1010A0008C819D819183808389819A8102960E949F
:1010B000A60F89819A810C960E94A60FE981FA8178
:1010C00089819A8191878087E981FA8189819A81D2
:1010D000938B828B8E81282F30E082E090E0821B00
:1010E000930BE981FA8195878487E981FA81968952
:1010F00080910E02891728F4E981FA81868980930C
:101100000E02E981FA818689282F30E0C901880F13
:10111000991F880F991F880F991F820F931FAC0189
:101120004B5E5D4F89819A819C012E5F3F4FCA01C2
:10113000B9010E94B60F81E08B8302C08FEF8B83D1
:101140008B8127960FB6F894DEBF0FBECDBFCF912F
:10115000DF910895DF93CF9300D000D000D0CDB7BA
:10116000DEB79C838B837E836D8320910F02309149
:1011700010028B819C81820F931F9A8389838091B7
:101180000C0290910D0202960E946610E0910C02F2
:10119000F0910D0289819A819383828320910F02BD
:1011A0003091100289819A818217930770F480919F
:1011B0003B0290913C0220910C0230910D022E5F77
:1011C0003F4FB9010E94FA0F0DC0809139029091F2
:1011D0003A0220910C0230910D022E5F3F4FB9016F
:1011E0000E94FA0F8D819E81009761F080910C0220
:1011F00090910D029C01245F3F4F8D819E81B9012A
:101200000E94FA0F26960FB6F894DEBF0FBECDBF30
:10121000CF91DF910895DF93CF9300D0CDB7DEB7A4
:101220003AC0F894E0914202F0914302868197819E
:101230009A83898389819A810C960E94661078949A
:1012400089819A8102960E946610E981FA819689C5
:1012500080910E02891728F4E981FA8186898093AA
:101260000E02E981FA818689282F30E0C901880FB2
:10127000991F880F991F880F991F820F931FAC0128
:101280004B5E5D4F89819A819C012E5F3F4FCA0161
:10129000B9010E94B60F80913D02882309F0C1CFA9
:1012A0000F900F90CF91DF910895DF93CF9300D0EF
:1012B00000D0CDB7DEB70E94F61E2091110230910A
:1012C0001202821B930B909314028093130285C029
:1012D00080910F02909110020196909310028093DA
:1012E0000F028091130290911402019790931402BF
:1012F0008093130280910F0290911002009709F0E1
:1013000064C08091390290913A029A8389838091D6
:101310003B0290913C0290933A028093390289817A
:101320009A8190933C0280933B024FC0E091390236
:10133000F0913A020580F681E02D868197819C83A9
:101340008B83EB81FC812281338180910F0290910C
:1013500010028217930708F440C0F8948B819C8197
:1013600002960E946610EB81FC8184899589009722
:1013700029F08B819C810C960E9466107894EB81F9
:10138000FC81968980910E02891728F4EB81FC81FB
:10139000868980930E02EB81FC818689282F30E0BC
:1013A000C901880F991F880F991F880F991F820FF5
:1013B000931FAC014B5E5D4F8B819C819C012E5F26
:1013C0003F4FCA01B9010E94B60FE0913902F09176
:1013D0003A028081882309F0A9CF8091130290916D
:1013E0001402009709F074CF80910F0290911002BF
:1013F00090931202809311020F900F900F900F9014
:10140000CF91DF910895DF93CF9300D0CDB7DEB7B2
:101410000E940B090E9455090AC080910E02882380
:1014200009F466C080910E02815080930E02809173
:101430000E02282F30E0C901880F991F880F991FCD
:10144000880F991F820F931FFC01EB5EFD4F808177
:10145000882319F380910E02282F30E0C901880FEC
:10146000991F880F991F880F991F820F931F8B5EFA
:101470009D4F9A838983E981FA810180F281E02D71
:1014800082819381E981FA8192838183E981FA8162
:101490002181328189819A8103962817390759F46D
:1014A000E981FA810180F281E02D82819381E981D5
:1014B000FA8192838183E981FA810180F281E02DB2
:1014C0008681978190930D0280930C02E0910C022B
:1014D000F0910D024081518180910C0290910D029A
:1014E000E0910C02F0910D022789622FFA01099513
:1014F0000F900F90CF91DF910895DF93CF930F92CC
:10150000CDB7DEB7198213C08981282F30E0C90119
:10151000880F991F880F991F880F991F820F931F9B
:101520008B5E9D4F0E947C0F89818F5F89838981AB
:10153000823050F387E292E00E947C0F80E392E0D9
:101540000E947C0F8DE392E00E947C0F87E292E084
:1015500090933A028093390280E392E090933C02A8
:1015600080933B020F90CF91DF910895DF93CF934B
:1015700000D000D00F92CDB7DEB79D838C83EC8175
:10158000FD810580F681E02D868197819B838A838A
:101590008A819B810C960E9466108A819B819C01A6
:1015A000245F3F4F8DE392E0B9010E94B60FEA81BC
:1015B000FB819689E0910C02F0910D0286899817C3
:1015C00018F081E0898301C0198289810F900F9002
:1015D0000F900F900F90CF91DF910895DF93CF93ED
:1015E00000D0CDB7DEB78BE090E00E942E0E9A833C
:1015F000898389819A81009749F0E981FA81118272
:10160000108289819A8102960E947C0F89819A8139
:101610000F900F90CF91DF910895DF93CF93CDB7C7
:10162000DEB760970FB6F894DEBF0FBECDBF9A87C6
:1016300089877C876B875E874D87388B2F87898565
:101640009A859C838B8319820E94601EEB81FC81AA
:101650008081918198878F8389859A852B853C85A8
:10166000B9010E94DF0C2F8138858B859C85282B42
:10167000392B8D859E85282339238D859E852817B6
:101680003907C9F42F8138858B859C85822B932B54
:101690009E838D83EB81FC81208131818D859E85A8
:1016A0008095909582239323EB81FC8191838083A5
:1016B000188A1F861CC08F859889009791F08B81AE
:1016C0009C81BC016E5F7F4F8D859E859C0135603E
:1016D0004F855889CB01B9010E94B0201E821D821E
:1016E00006C0EB81FC81808191819E838D830E9465
:1016F0006C1E8A838F859889009709F43AC08A8185
:10170000882311F40E9471120E942C259E838D83E0
:101710008D819E8180709270009731F50FB6F8949C
:101720000F92EB81FC81808191819E838D832D813D
:101730003E818D859E85282339238D859E8528179A
:10174000390771F4EB81FC81208131818D859E8583
:101750008095909582239323EB81FC8191838083F4
:101760000F900FBE81E089838D819E8190709E8352
:101770008D838D819E8160960FB6F894DEBF0FBE7B
:10178000CDBFCF91DF9108950F931F93DF93CF9338
:10179000CDB7DEB763970FB6F894DEBF0FBECDBFEF
:1017A0009D878C877F876E87488B298B1B8B0A8B45
:1017B0008C859D859B878A871F821E821B820E9443
:1017C000601EEA85FB85808191819A838983898166
:1017D0009A812E853F85B90149890E94FC0D8D8330
:1017E0008D818823C1F089819A81998788871B8A96
:1017F0001A8A88898823D9F1EA85FB85208131817D
:101800008E859F858095909582239323EA85FB851D
:10181000918380832CC08A899B89009729F48981D0
:101820009A819987888723C08889882329F08E81A7
:101830009F8191609F838E838989882329F08E817F
:101840009F8194609F838E838A859B85BC016E5F98
:101850007F4F2E853F858E819F81282B392B4A898A
:101860005B89CB01B9010E94B020198618860E94BD
:101870006C1E8C838A899B89009709F43BC08C81FC
:10188000882311F40E9471120E942C259987888761
:101890008885998580709270009739F50FB6F89415
:1018A0000F92EA85FB858081918199878887888559
:1018B00099852E853F85B90149890E94FC0D8823B1
:1018C00089F08889882371F0EA85FB852081318140
:1018D0008E859F858095909582239323EA85FB854D
:1018E000918380830F900FBE1B82888599859070AD
:1018F000998788878885998563960FB6F894DEBFA7
:101900000FBECDBFCF91DF911F910F910895DF934F
:10191000CF93CDB7DEB728970FB6F894DEBF0FBED2
:10192000CDBF9E838D8378876F838D819E819C83BD
:101930008B830FB6F8940F92EB81FC8180819181AB
:101940009A838983EB81FC81208131818F81988505
:101950008095909582239323EB81FC8191838083F2
:101960000F900FBE89819A8128960FB6F894DEBF3A
:101970000FBECDBFCF91DF910895DF93CF93CDB749
:10198000DEB727970FB6F894DEBF0FBECDBF9F839B
:101990008E838E819F819C838B831D82EB81FC8152
:1019A000808191819A83898389819A8127960FB654
:1019B000F894DEBF0FBECDBFCF91DF910895DF93C6
:1019C000CF93CDB7DEB765970FB6F894DEBF0FBEE5
:1019D000CDBF9B8B8A8B7D8B6C8B198618868A89F1
:1019E0009B899B838A8319828A819B8102969B872C
:1019F0008A878A859B8503969D878C870E94601EB7
:101A0000EA85FB8585819681998B888BEA81FB81AC
:101A1000208131818C899D89822B932BEA81FB81E6
:101A20009183808359C0E889F989828193819F8756
:101A30008E87E889F989808191819F838E831982BD
:101A40008E819F8180709D838C838E819F81907019
:101A50009F838E838C819D8180709470009769F440
:101A6000EA81FB81208131818E819F8182239323B2
:101A7000009791F081E089830FC0EA81FB8120818A
:101A800031818E819F81282339238E819F81281760
:101A9000390711F481E0898389818823C9F08C8119
:101AA0009D8180709170009741F0888599852E8185
:101AB0003F81822B932B99878887EA81FB818081E4
:101AC00091819C01326088899989B9010E945E21C7
:101AD0008E859F85998B888B288939898C859D85F2
:101AE0002817390709F09FCFEA81FB8120813181D6
:101AF000888599858095909582239323EA81FB813F
:101B0000918380830E946C1EEA81FB818081918198
:101B100065960FB6F894DEBF0FBECDBFCF91DF91B3
:101B20000895DF93CF9300D000D000D0CDB7DEB7BB
:101B30009E838D838D819E819C838B838B819C81F1
:101B400002969A8389830E94601E08C0E981FA8107
:101B50008581968160E072E00E945E21E981FA81D0
:101B60008081882399F78B819C810E94840E0E943A
:101B70006C1E26960FB6F894DEBF0FBECDBFCF9178
:101B8000DF910895DF93CF9300D000D000D0CDB780
:101B9000DEB79A8389834B835C836D837E832B813D
:101BA0003C8189819A81B9010E94DF0C26960FB68B
:101BB000F894DEBF0FBECDBFCF91DF910895DF93C4
:101BC000CF9300D000D000D0CDB7DEB79A83898301
:101BD0004B835C836D837E832B813C8189819A81D9
:101BE000B9010E94870C26960FB6F894DEBF0FBE8F
:101BF000CDBFCF91DF910895DF93CF9300D000D078
:101C000000D0CDB7DEB79B838A837D836C834E8300
:101C100019828E81882359F48A819B812C813D8190
:101C200082239323009781F081E089830DC02A816C
:101C30003B818C819D81282339238C819D812817AC
:101C4000390711F481E08983898126960FB6F894CB
:101C5000DEBF0FBECDBFCF91DF910895DF93CF934D
:101C600000D000D0CDB7DEB79C838B831A82198257
:101C70000E94601E8091480290914902009731F4C1
:101C80008BE492E09093490280934802809146024F
:101C9000909147022B813C81820F931F24E08D3766
:101CA000920738F520914602309147028B819C8142
:101CB000280F391F8091460290914702821793079F
:101CC000C0F42091480230914902809146029091DF
:101CD0004702820F931F9A83898320914602309195
:101CE00047028B819C81820F931F909347028093C0
:101CF00046020E946C1E89819A810F900F900F906E
:101D00000F90CF91DF910895DF93CF9300D0CDB79F
:101D1000DEB79A8389830F900F90CF91DF9108955A
:101D2000DF93CF93CDB7DEB71092470210924602F1
:101D3000CF91DF910895DF93CF93CDB7DEB7209198
:101D40004602309147028DE794E0821B930BCF91BE
:101D5000DF910895AF92BF92CF92DF92EF92FF9200
:101D60000F93DF93CF9300D00F92CDB7DEB78B8365
:101D70001A8219821BC089819A81FC01E853F94FAC
:101D800088EE9EE020E730E0B90145E550E09F0194
:101D90000B81EE24FF24CC24DD24AA24BB240E9442
:101DA000321B89819A8101969A83898389819A81DC
:101DB0001816190604F70F900F900F90CF91DF912E
:101DC0000F91FF90EF90DF90CF90BF90AF9008956C
:101DD000DF93CF93CDB7DEB72A970FB6F894DEBF67
:101DE0000FBECDBF9A8789871C821B8289859A8501
:101DF0009A8389838BE790E0A0E0B0E08D839E8397
:101E0000AF83B8878D819E81AF81B885895B9B4602
:101E1000AC4FBF4F8D839E83AF83B8878D819E81EA
:101E2000AF81B8852DEF3FEF4FEF5FEFBC01CD01E4
:101E30000E945036DC01CB018D839E83AF83B8872F
:101E40008D819E81AF81B88527E030E040E050E091
:101E5000BC01CD010E949136DA01C9018D839E83B8
:101E6000AF83B8878D819E81AF81B8858B3127E79D
:101E700092072EEFA2072FEFB20721F081E090E04A
:101E80009C838B838B819C81009709F0B3CF0FB625
:101E9000F8940F92E981FA8181E080830F900FBE60
:101EA000A9CFDF93CF9300D00F92CDB7DEB781E0FB
:101EB0008B831A82198214C089819A81FC01E853AC
:101EC000F94F8081882309F41B8289819A81FC0162
:101ED000E853F94F108289819A8101969A83898308
:101EE00089819A81181619063CF78B810F900F9003
:101EF0000F90CF91DF910895DF93CF9300D0CDB7AE
:101F0000DEB79A83898389819A810396E981FA8170
:101F100092838183E981FA818FEF9FEF948383839A
:101F200089819A810396E981FA81968385838981E3
:101F30009A810396E981FA8190878783E981FA8102
:101F400010820F900F90CF91DF910895DF93CF9380
:101F500000D0CDB7DEB79A838983E981FA811186F3
:101F600010860F900F90CF91DF910895DF93CF935C
:101F700000D000D000D0CDB7DEB79C838B837E83AA
:101F80006D83EB81FC81818192819A838983ED81CC
:101F9000FE8189819A8193838283E981FA81848198
:101FA0009581ED81FE8195838483E981FA810480A6
:101FB000F581E02D8D819E8193838283E981FA8171
:101FC0008D819E8195838483ED81FE818B819C81AF
:101FD00091878087EB81FC8180818F5FEB81FC8121
:101FE000808326960FB6F894DEBF0FBECDBFCF918B
:101FF000DF910895DF93CF93CDB7DEB728970FB663
:10200000F894DEBF0FBECDBF9E838D8378876F832C
:10201000EF81F885808191819A83898389819A8172
:102020002FEF8F3F920739F4ED81FE8187819085F4
:102030009C838B8318C08D819E8103969C838B83A8
:1020400006C0EB81FC81828193819C838B83EB8131
:10205000FC810280F381E02D2081318189819A8188
:102060008217930770F7EB81FC8182819381EF8166
:10207000F88593838283EF81F8850280F381E02DD8
:102080008F81988595838483EF81F8858B819C81EE
:1020900095838483EB81FC818F81988593838283F0
:1020A000EF81F8858D819E8191878087ED81FE810A
:1020B00080818F5FED81FE81808328960FB6F89432
:1020C000DEBF0FBECDBFCF91DF910895DF93CF93D9
:1020D00000D000D0CDB7DEB79C838B83EB81FC8131
:1020E000808591859A838983EB81FC81A281B3816C
:1020F000EB81FC818481958115969C938E93149736
:10210000EB81FC81A481B581EB81FC81828193818B
:1021100013969C938E931297E981FA8121813281E3
:102120008B819C812817390741F4EB81FC818481E4
:102130009581E981FA8192838183EB81FC8111860B
:102140001086E981FA8180818150E981FA8180835A
:10215000E981FA8180810F900F900F900F90CF91BD
:10216000DF910895DF93CF93CDB7DEB728970FB6F1
:10217000F894DEBF0FBECDBF9C838B837E836D83BF
:1021800058874F83EB81FC8181E180838B819C8127
:1021900001979C838B83EB81FC8182E280838B811E
:1021A0009C8101979C838B83EB81FC8183E38083FB
:1021B0008B819C8101979C838B838D819E819A83E7
:1021C00089838981EB81FC8180838B819C8101974C
:1021D0009C838B8389819A81892F99279A8389830C
:1021E0008981EB81FC8180838B819C8101979C8319
:1021F0008B83EB81FC8110828B819C8101979C8376
:102200008B83EB81FC8180E880838B819C810197AB
:102210009C838B83EB81FC8110828B819C81019755
:102220009C838B83EB81FC8182E080838B819C810A
:1022300001979C838B83EB81FC8183E080838B817E
:102240009C8101979C838B83EB81FC8184E080835C
:102250008B819C8101979C838B83EB81FC8185E042
:1022600080838B819C8101979C838B83EB81FC8194
:1022700086E080838B819C8101979C838B83EB819B
:10228000FC8187E080838B819C8101979C838B8379
:10229000EB81FC8188E080838B819C8101979C830A
:1022A0008B83EB81FC8189E080838B819C8101970A
:1022B0009C838B83EB81FC8180E180838B819C817B
:1022C00001979C838B83EB81FC8181E180838B81EF
:1022D0009C8101979C838B83EB81FC8182E18083CD
:1022E0008B819C8101979C838B83EB81FC8183E1B3
:1022F00080838B819C8101979C838B83EB81FC8104
:1023000084E180838B819C8101979C838B83EB810B
:10231000FC8185E180838B819C8101979C838B83E9
:10232000EB81FC8186E180838B819C8101979C837A
:102330008B83EB81FC8187E180838B819C8101977A
:102340009C838B83EB81FC8188E180838B819C81E2
:1023500001979C838B83EB81FC8189E180838B8156
:102360009C8101979C838B83EB81FC8180E280833D
:102370008B819C8101979C838B83EB81FC8181E223
:1023800080838B819C8101979C838B83EB81FC8173
:1023900082E280838B819C8101979C838B83EB817C
:1023A000FC8183E280838B819C8101979C838B835A
:1023B0008F8198859A8389838981EB81FC818083D1
:1023C0008B819C8101979C838B8389819A81892F42
:1023D00099279A8389838981EB81FC8180838B8112
:1023E0009C8101979C838B83EB81FC8186E28083B7
:1023F0008B819C8101979C838B83EB81FC8187E29D
:1024000080838B819C8101979C838B83EB81FC81F2
:1024100088E280838B819C8101979C838B83EB81F5
:10242000FC8189E280838B819C8101979C838B83D3
:10243000EB81FC8180E380838B819C8101979C836D
:102440008B83EB81FC8181E380838B819C8101976D
:102450009C838B838B819C8128960FB6F894DEBF7A
:102460000FBECDBFCF91DF910895DF93CF93CDB74E
:10247000DEB70E942713A091C906B091CA06CD917C
:10248000CDBFDD91DEBFFF91EF91DF91CF91BF9185
:10249000AF919F918F917F916F915F914F913F91FC
:1024A0002F911F910F91FF90EF90DF90CF90BF90F1
:1024B000AF909F908F907F906F905F904F903F90E4
:1024C0002F901F900F900FBE0F90089581E0CF9135
:1024D000DF910895DF93CF93CDB7DEB7CF91DF9132
:1024E00008950F920FB6F8940F921F9211242F9215
:1024F0003F924F925F926F927F928F929F92AF9294
:10250000BF92CF92DF92EF92FF920F931F932F9380
:102510003F934F935F936F937F938F939F93AF936B
:10252000BF93CF93DF93EF93FF93A091C906B09130
:10253000CA060DB60D920EB60D920E941220A09101
:10254000C906B091CA06CD91CDBFDD91DEBFFF9126
:10255000EF91DF91CF91BF91AF919F918F917F913B
:102560006F915F914F913F912F911F910F91FF902C
:10257000EF90DF90CF90BF90AF909F908F907F9023
:102580006F905F904F903F902F901F900F900FBED5
:102590000F9008950F920FB6F8940F921F92112486
:1025A0002F923F924F925F926F927F928F929F9263
:1025B000AF92BF92CF92DF92EF92FF920F931F9351
:1025C0002F933F934F935F936F937F938F939F933B
:1025D000AF93BF93CF93DF93EF93FF93A091C9067F
:1025E000B091CA060DB60D920EB60D920E942B1F29
:1025F000882311F00E941220A091C906B091CA064A
:10260000CD91CDBFDD91DEBFFF91EF91DF91CF91F5
:10261000BF91AF919F918F917F916F915F914F91FA
:102620003F912F911F910F91FF90EF90DF90CF90EE
:10263000BF90AF909F908F907F906F905F904F90E2
:102640003F902F901F900F900FBE0F900895DF9333
:10265000CF9300D000D000D0CDB7DEB780E49FE1AB
:10266000A0E0B0E08B839C83AD83BE838B819C8193
:10267000AD81BE81689415F8B695A7959795879515
:102680001694D1F78B839C83AD83BE838B819C8111
:10269000AD81BE810197A109B1098B839C83AD8374
:1026A000BE838B8189838B819C81AD81BE81892F83
:1026B0009A2FAB2FBB278B839C83AD83BE838B81EB
:1026C0008A83EBE4F0E08A818083EAE4F0E08981A8
:1026D00080838BE08983EEE4F0E089818083E9E503
:1026E000F0E080818983898180618983E9E5F0E078
:1026F0008981808326960FB6F894DEBF0FBECDBFCA
:10270000CF91DF9108950E94CA121895DF93CF935D
:1027100000D000D00F92CDB7DEB79C838B836D8342
:102720008B819C819A8389830FB6F8940F92E981FB
:10273000FA8140815181E981FA81838D282F30E02F
:10274000E981FA81848D882F90E0BC01269FC00129
:10275000279F900D369F900D1124840F951FE981BE
:10276000FA8193838283E981FA81128EE981FA8169
:1027700080819181E981FA8195838483E981FA815D
:1027800040815181E981FA81838D882F90E09C01FD
:1027900021503040E981FA81848D882F90E0BC017E
:1027A000269FC001279F900D369F900D1124840F06
:1027B000951FE981FA8197838683E981FA818FEFFA
:1027C000858FE981FA818FEF868F8D81882379F457
:1027D000E981FA8180858823A1F089819A81089610
:1027E0000E94F320813069F40E9471120AC089812D
:1027F0009A8108960E947C0F89819A8141960E9455
:102800007C0F0F900FBE81E00F900F900F900F90F4
:102810000F90CF91DF910895DF93CF93CDB7DEB7BF
:1028200029970FB6F894DEBF0FBECDBF8F836887A0
:1028300049871A8219828F81882309F43FC08FE16A
:1028400090E00E942E0E9E838D838D819E81009745
:10285000A9F18F81282F30E08885882F90E0AC0186
:10286000249FC001259F900D349F900D1124019647
:102870009C838B838B819C810E942E0EED81FE8137
:1028800091838083ED81FE8180819181009791F019
:10289000ED81FE818F81838FED81FE818885848F1C
:1028A0008D819E8161E00E9486138D819E819A8335
:1028B000898304C08D819E810E94840E89819A81C2
:1028C00029960FB6F894DEBF0FBECDBFCF91DF9132
:1028D0000895DF93CF9300D00F92CDB7DEB78B83EF
:1028E0008FE190E00E942E0E9A83898389819A81DC
:1028F0000097A9F1E981FA8113821282E981FA81B4
:1029000011821082E981FA8115821482E981FA81AB
:1029100017821682E981FA81128EE981FA8181E0BB
:10292000838FE981FA81148EE981FA818FEF858F97
:10293000E981FA818FEF868F89819A8108960E94BA
:102940007C0F89819A8141960E947C0F89819A81AE
:1029500060E070E040E050E020E00E94D714898100
:102960009A810F900F900F90CF91DF910895DF9390
:10297000CF9300D000D0CDB7DEB78B836C838B8133
:1029800060E042E00E940C149A83898389819A81D5
:10299000009721F0E981FA818C81828F89819A8167
:1029A0000F900F900F900F90CF91DF910895DF93CC
:1029B000CF93CDB7DEB72F970FB6F894DEBF0FBE1B
:1029C000CDBF998788877B876A875D874C872E87ED
:1029D0001C82888599859A8389830FB6F8940F9213
:1029E000E981FA81928DE981FA81838D981718F037
:1029F0008E85823011F589819A812A853B85B901BE
:102A00004E850E94C9178B83E981FA8181898823C9
:102A100051F089819A8141960E94F320813041F4DE
:102A20000E94711205C08B81882311F00E947112DF
:102A30000F900FBE81E08F875CC08C859D850097CD
:102A400021F40F900FBE1F8654C08C81882331F46F
:102A5000CE0105960E94C32181E08C830F900FBEAA
:102A60000E94601E0FB6F8940F92E981FA81858D5D
:102A70008F3F19F4E981FA81158EE981FA81868DFB
:102A80008F3F19F4E981FA81168E0F900FBECE01A7
:102A900005969E01245F3F4FB9010E94DC218823E7
:102AA00009F589819A810E9452198823A1F08981B0
:102AB0009A8108962C853D85B9010E947B208981E9
:102AC0009A810E94C9180E946C1E882309F085CF44
:102AD0000E94711282CF89819A810E94C9180E9436
:102AE0006C1E7BCF89819A810E94C9180E946C1E3E
:102AF0001F868F852F960FB6F894DEBF0FBECDBF11
:102B0000CF91DF910895DF93CF93CDB7DEB72B97A9
:102B10000FB6F894DEBF0FBECDBF9E838D8378873E
:102B20006F835A8749872B878D819E819A838983FA
:102B30001B82E981FA81928DE981FA81838D981750
:102B400018F08B858230B1F589819A812F81388583
:102B5000B9014B850E94C917882341F089859A8560
:102B6000009721F0E985FA8581E08083E981FA8187
:102B7000868D8F3FA9F4E981FA8181898823B9F094
:102B800089819A8141960E94F320882381F089856A
:102B90009A85009761F0E985FA8581E0808307C016
:102BA000E981FA81868D8F5FE981FA81868F81E0E4
:102BB0008C8301C01C828C812B960FB6F894DEBFEB
:102BC0000FBECDBFCF91DF910895DF93CF93CDB7E7
:102BD000DEB760970FB6F894DEBF0FBECDBF9A8701
:102BE00089877C876B875E874D872F871D828985C4
:102BF0009A859A8389830FB6F8940F92E981FA81B6
:102C0000828D882309F44BC0E981FA8186819781FE
:102C10009C838B8389819A812B853C85B9010E9495
:102C200082188F85882311F5E981FA81828D815080
:102C3000E981FA81828FE981FA818081918100970F
:102C400031F40E945325E981FA8193838283E981DB
:102C5000FA8180858823F1F089819A8108960E9403
:102C6000F3208130B9F40E94711214C0E981FA8115
:102C70008B819C8197838683E981FA81818988236E
:102C800049F089819A8141960E94F320882311F0AE
:102C90000E9471120F900FBE81E0888B6DC08D85F0
:102CA0009E85009721F40F900FBE188A65C08D8114
:102CB000882331F4CE0106960E94C32181E08D83E2
:102CC0000F900FBE0E94601E0FB6F8940F92E9811C
:102CD000FA81858D8F3F19F4E981FA81158EE9819A
:102CE000FA81868D8F3F19F4E981FA81168E0F9053
:102CF0000FBECE0106969E01235F3F4FB9010E9491
:102D0000DC21882391F589819A810E941D198823ED
:102D100029F1E981FA8180819181009759F40FB6F8
:102D2000F8940F92E981FA81828193810E942F2485
:102D30000F900FBE89819A8141962D853E85B901FC
:102D40000E947B2089819A810E94C9180E946C1E72
:102D5000882309F050CF0E9471124DCF89819A814A
:102D60000E94C9180E946C1E46CF89819A810E94D8
:102D7000C9180E946C1E188A888960960FB6F8944C
:102D8000DEBF0FBECDBFCF91DF910895DF93CF930C
:102D9000CDB7DEB72A970FB6F894DEBF0FBECDBF12
:102DA0009E838D8378876F835A8749878D819E8123
:102DB0009A8389831B82E981FA81828D882391F12C
:102DC00089819A812F813885B9010E948218E98111
:102DD000FA81828D8150E981FA81828FE981FA81BD
:102DE000858D8F3FA9F4E981FA8180858823B9F028
:102DF00089819A8108960E94F320882381F0898531
:102E00009A85009761F0E985FA8581E0808307C0A3
:102E1000E981FA81858D8F5FE981FA81858F81E073
:102E20008C8301C01C828C812A960FB6F894DEBF79
:102E30000FBECDBFCF91DF910895DF93CF93CDB774
:102E4000DEB72A970FB6F894DEBF0FBECDBF9887C6
:102E50008F837A8769878F8198859A8389831D827A
:102E6000E981FA81828D8823B1F0E981FA81868136
:102E700097819C838B8389819A8129853A85B901C1
:102E80000E948218E981FA818B819C8197838683D5
:102E900081E08E8301C01E828E812A960FB6F8943F
:102EA000DEBF0FBECDBFCF91DF910895DF93CF93EB
:102EB00000D00F92CDB7DEB79B838A830FB6F8940C
:102EC0000F92EA81FB81828D89830F900FBE8981E9
:102ED0000F900F900F90CF91DF910895DF93CF93D4
:102EE00000D000D00F92CDB7DEB79D838C838C814C
:102EF0009D819A8389830FB6F8940F92E981FA81B4
:102F0000938DE981FA81828D292F281B822F8B8353
:102F10000F900FBE8B810F900F900F900F900F901E
:102F2000CF91DF910895DF93CF9300D00F92CDB76B
:102F3000DEB79B838A83EA81FB81828D89838981C5
:102F40000F900F900F90CF91DF910895DF93CF9363
:102F500000D000D0CDB7DEB79C838B838B819C8162
:102F60009A838983E981FA8180819181009731F088
:102F7000E981FA81808191810E94840E89819A8100
:102F80000E94840E0F900F900F900F90CF91DF91C1
:102F90000895DF93CF9300D000D000D0CDB7DEB737
:102FA0009B838A837D836C834E831982EA81FB81B4
:102FB000848D882399F4EA81FB8180819181009737
:102FC00009F08FC0EA81FB81828193810E94BA243B
:102FD0008983EA81FB811382128283C08E818823D8
:102FE00099F5EA81FB8164817581EA81FB81848D99
:102FF000482F50E02C813D81CB01B9010E94E3367E
:10300000EA81FB8124813581EA81FB81848D882FCF
:1030100090E0820F931FEA81FB8195838483EA818C
:10302000FB8124813581EA81FB818281938128178C
:10303000390708F456C0EA81FB8180819181EA81D9
:10304000FB81958384834DC0EA81FB816681778112
:10305000EA81FB81848D482F50E02C813D81CB019A
:10306000B9010E94E336EA81FB8126813781EA813A
:10307000FB81848D882F90E0909581959F4F820FE2
:10308000931FEA81FB8197838683EA81FB812681F6
:103090003781EA81FB81808191812817390790F47B
:1030A000EA81FB8122813381EA81FB81848D882F33
:1030B00090E0909581959F4F820F931FEA81FB814D
:1030C000978386838E81823061F4EA81FB81828DD1
:1030D000882339F0EA81FB81828D8150EA81FB816E
:1030E000828FEA81FB81828D8F5FEA81FB81828FF3
:1030F000898126960FB6F894DEBF0FBECDBFCF9163
:10310000DF910895DF93CF9300D000D0CDB7DEB725
:103110009A8389837C836B83E981FA81848D8823F8
:1031200089F1E981FA8126813781E981FA81848DEB
:10313000882F90E0820F931FE981FA81978386831D
:10314000E981FA8126813781E981FA81828193813F
:103150002817390740F0E981FA8180819181E9815E
:10316000FA8197838683E981FA8146815781E981D3
:10317000FA81848D282F30E08B819C81BA01A901CE
:103180000E94E3360F900F900F900F90CF91DF9138
:103190000895DF93CF9300D0CDB7DEB79A838983AC
:1031A0000FB6F8940F9215C0E981FA8181898823BE
:1031B000A9F089819A8141960E94F320882311F019
:1031C0000E943F22E981FA81868D8150E981FA814E
:1031D000868FE981FA81868D181634F3E981FA81A8
:1031E0008FEF868F0F900FBE0FB6F8940F9215C019
:1031F000E981FA8180858823A9F089819A810896DE
:103200000E94F320882311F00E943F22E981FA8175
:10321000858D8150E981FA81858FE981FA81858DDB
:10322000181634F3E981FA818FEF858F0F900FBE66
:103230000F900F90CF91DF910895DF93CF9300D03F
:103240000F92CDB7DEB79B838A830FB6F8940F92A7
:10325000EA81FB81828D882319F481E0898301C092
:1032600019820F900FBE89810F900F900F90CF9110
:10327000DF910895DF93CF9300D00F92CDB7DEB7E3
:103280009B838A83EA81FB81828D882319F481E004
:10329000898301C0198289810F900F900F90CF917F
:1032A000DF910895DF93CF9300D00F92CDB7DEB7B3
:1032B0009B838A830FB6F8940F92EA81FB81928DEB
:1032C000EA81FB81838D981719F481E0898301C01D
:1032D00019820F900FBE89810F900F900F90CF91A0
:1032E000DF910895DF93CF9300D00F92CDB7DEB773
:1032F0009B838A83EA81FB81928DEA81FB81838DA6
:10330000981719F481E0898301C0198289810F908F
:103310000F900F90CF91DF910895DF93CF93CDB7AA
:10332000DEB72A970FB6F894DEBF0FBECDBF9D83E0
:103330008C837F836E83598748878C819D819A8394
:103340008983F89489819A810E9452198823A9F06F
:1033500088859985009771F089819A819C01285F01
:103360003F4F88859985B9010E94AA0878948CEF0F
:103370008A872AC078941A8627C07894F894E981BD
:10338000FA81928DE981FA81838D9817C8F4898139
:103390009A812E813F81B90140E00E94C91781E0E6
:1033A0008B83E981FA818189882359F089819A8107
:1033B00041960E94B60A882321F08BEF8B8301C0CF
:1033C0001B8278948B818A878A852A960FB6F89417
:1033D000DEBF0FBECDBFCF91DF910895DF93CF93B6
:1033E000CDB7DEB72A970FB6F894DEBF0FBECDBFBC
:1033F0009D838C837F836E83598748878C819D81D1
:103400009A838983F894E981FA81828D8823A9F4CB
:1034100088859985009771F089819A819C012F5E3A
:103420003F4F88859985B9010E94AA0878948CEF4E
:103430008A8758C078941A8655C07894F894E981A0
:10344000FA81828D882309F449C0E981FA812681B5
:103450003781E981FA81848D882F90E0820F931F54
:10346000E981FA8197838683E981FA812681378110
:10347000E981FA81828193812817390740F0E98137
:10348000FA8180819181E981FA8197838683E9813C
:10349000FA81828D8150E981FA81828FE981FA81F6
:1034A00046815781E981FA81848D282F30E08E8111
:1034B0009F81BA01A9010E94E33681E08B83E981F3
:1034C000FA818085882359F089819A8108960E9423
:1034D000B60A882321F08BEF8B8301C01B8278947E
:1034E0008B818A878A852A960FB6F894DEBF0FBE35
:1034F000CDBFCF91DF910895DF93CF93CDB7DEB7E6
:1035000028970FB6F894DEBF0FBECDBF9C838B8388
:103510007E836D834F838B819C819A838983E9812C
:10352000FA81928DE981FA81838D9817D0F489818F
:103530009A812D813E81B90140E00E94C9178F8197
:10354000882379F4E981FA818189882351F089817E
:103550009A8141960E94B60A882319F081E08887F3
:1035600002C08F818887888528960FB6F894DEBFC1
:103570000FBECDBFCF91DF910895DF93CF93CDB72D
:10358000DEB729970FB6F894DEBF0FBECDBF9D837F
:103590008C837F836E83598748878C819D819A8332
:1035A0008983E981FA81828D882309F450C0E981F9
:1035B000FA8126813781E981FA81848D882F90E014
:1035C000820F931FE981FA8197838683E981FA81CB
:1035D00026813781E981FA81828193812817390711
:1035E00040F0E981FA8180819181E981FA819783B4
:1035F0008683E981FA81828D8150E981FA81828F07
:10360000E981FA8146815781E981FA81848D282FE9
:1036100030E08E819F81BA01A9010E94E336E885DE
:10362000F9858081882381F4E981FA818085882366
:1036300059F089819A8108960E94B60A882321F060
:10364000E885F98581E0808381E08B8301C01B825E
:103650008B8129960FB6F894DEBF0FBECDBFCF91F8
:10366000DF910895AF92BF92CF92DF92EF92FF92D7
:103670000F931F93DF93CF93CDB7DEB764970FB649
:10368000F894DEBF0FBECDBF9F838E837987688796
:103690005B874A873D872C870E87F88AEF86DA8A10
:1036A000C98ABC8AAB8A8A859B8529893A89B901EE
:1036B0000E9498239C838B838B819C81009709F4C3
:1036C0008DC0EB81FC812789308D8A859B85019790
:1036D000820F931F9A8389838B819C8128853985EA
:1036E000EB89FC89AA85BB85B9014E859F018D01B7
:1036F0000E94592289819A812E813F814C855D8566
:10370000B9010E94B210EB81FC81918380838F8587
:103710009889009731F0EF85F8898B819C8191839E
:1037200080830FB6F8940F928091CC068F5F8093C0
:10373000CC068091C9069091CA06009769F48B81E6
:103740009C819093CA068093C9068091CC068130F3
:10375000A9F40E94D32212C08091D006882371F46C
:10376000E091C906F091CA0696898E85891730F0D6
:103770008B819C819093CA068093C9068091D40660
:103780008F5F8093D406EB81FC8196898091CF0670
:10379000891728F4EB81FC8186898093CF06EB8121
:1037A000FC818689282F30E0C901880F991F880F76
:1037B000991F880F991F820F931FAC014A52594FCE
:1037C0008B819C819C012E5F3F4FCA01B9010E94F1
:1037D000B60F81E08D830F900FBE02C08FEF8D83F7
:1037E0008D81813071F48091D006882351F0E09171
:1037F000C906F091CA0696898E85981710F40E9422
:1038000071128D8164960FB6F894DEBF0FBECDBFE6
:10381000CF91DF911F910F91FF90EF90DF90CF90AC
:10382000BF90AF900895DF93CF9300D000D000D029
:10383000CDB7DEB79C838B830FB6F8940F928B8144
:103840009C81009739F48091C9069091CA069E83A5
:103850008D8304C08B819C819E838D838D819E810D
:103860009A83898389819A8102960E946610E981F0
:10387000FA8184899589009729F089819A810C962B
:103880000E94661089819A819C012E5F3F4F84E3DC
:1038900097E0B9010E94B60F8091CB068F5F8093AD
:1038A000CB068091D4068F5F8093D4060F900FBE15
:1038B0008091D006882399F02091C9063091CA06DC
:1038C00089819A818217930719F40E94711207C0A7
:1038D0000FB6F8940F920E94F2230F900FBE269617
:1038E0000FB6F894DEBF0FBECDBFCF91DF91089524
:1038F000DF93CF93CDB7DEB72A970FB6F894DEBF2C
:103900000FBECDBF98878F837A8769871B820E94FD
:10391000601E8091CD069091CE069A838983EF81B7
:10392000F8852081318189859A85820F931F9E8336
:103930008D83EF81F8852081318189819A81821779
:10394000930798F4EF81F885208131818D819E81E4
:1039500082179307E0F42D813E8189819A81821735
:103960009307A8F481E08B8312C0EF81F885208152
:1039700031818D819E818217930738F02D813E81A0
:1039800089819A818217930710F481E08B83EF81FC
:10399000F8858D819E81918380838B81882359F066
:1039A0008091C9069091CA0602960E9466108D8188
:1039B0009E810E944F230E946C1E8C838C818823E1
:1039C00011F40E9471122A960FB6F894DEBF0FBE52
:1039D000CDBFCF91DF910895DF93CF9300D000D07A
:1039E0000F92CDB7DEB79D838C8319828C819D8128
:1039F0000097D1F00E94601E2091CD063091CE0636
:103A00008C819D81820F931F9B838A838091C9063D
:103A10009091CA0602960E9466108A819B810E943C
:103A20004F230E946C1E89838981882311F40E9490
:103A300071120F900F900F900F900F90CF91DF9118
:103A40000895DF93CF93CDB7DEB727970FB6F894DD
:103A5000DEBF0FBECDBF9D838C830FB6F8940F924F
:103A60008C819D81009739F48091C9069091CA0696
:103A70009F838E8304C08C819D819F838E838E81E2
:103A80009F819B838A83EA81FB81868989830F904A
:103A90000FBE898127960FB6F894DEBF0FBECDBF4B
:103AA000CF91DF910895DF93CF93CDB7DEB72A97FB
:103AB0000FB6F894DEBF0FBECDBF9F838E8368879D
:103AC00019828885873010F086E088870FB6F894D1
:103AD0000F928E819F81009739F48091C906909151
:103AE000CA069A87898704C08E819F819A878987B1
:103AF00089859A859D838C83EC81FD8185A58B8347
:103B00009B818885981709F48DC098858B818917CA
:103B1000A0F42091C9063091CA068C819D8182173C
:103B20009307B1F0E091C906F091CA06968988859D
:103B3000891770F081E089830BC02091C90630910C
:103B4000CA068C819D818217930711F481E08983D5
:103B5000EC81FD8186898A83EC81FD8195A5EC81CC
:103B6000FD818689981721F4EC81FD818885868BFB
:103B7000EC81FD81888585A7EC81FD818485958513
:103B800099235CF08885282F30E087E090E0821B45
:103B9000930BEC81FD8195878487EC81FD814285C3
:103BA00053858A81282F30E0C901880F991F880F1B
:103BB000991F880F991F820F931F8A52994F481798
:103BC000590759F58C819D8102960E946610EC81FF
:103BD000FD8196898091CF06891728F4EC81FD81BB
:103BE00086898093CF06EC81FD818689282F30E07D
:103BF000C901880F991F880F991F880F991F820F7D
:103C0000931FAC014A52594F8C819D819C012E5FBC
:103C10003F4FCA01B9010E94B60F8981813011F46A
:103C20000E9471120F900FBE2A960FB6F894DEBF55
:103C30000FBECDBFCF91DF910895AF92BF92CF92CB
:103C4000DF92EF92FF920F93DF93CF930F92CDB756
:103C5000DEB789E492E228E730E0B90145E550E0BB
:103C600020E030E000E0EE24FF24CC24DD24AA2470
:103C7000BB240E94321B89838981813051F4F894DE
:103C800081E08093D0061092CE061092CD060E945D
:103C900035120F90CF91DF910F91FF90EF90DF9051
:103CA000CF90BF90AF900895DF93CF93CDB7DEB79D
:103CB000F8941092D0060E946A12CF91DF91089575
:103CC000DF93CF93CDB7DEB78091D5068F5F80931A
:103CD000D506CF91DF910895DF93CF9300D00F9257
:103CE000CDB7DEB719820FB6F8940F928091D50642
:103CF00081508093D5068091D506882309F06DC048
:103D00008091CC06882309F468C045C0E091300753
:103D1000F0913107868197819B838A838A819B8179
:103D20000C960E9466108A819B8102960E94661002
:103D3000EA81FB8196898091CF06891728F4EA8170
:103D4000FB8186898093CF06EA81FB818689282FB3
:103D500030E0C901880F991F880F991F880F991F9C
:103D6000820F931FAC014A52594F8A819B819C015B
:103D70002E5F3F4FCA01B9010E94B60FEA81FB8155
:103D80009689E091C906F091CA068689981718F0BD
:103D900081E08093D20680912B07882309F0B6CF6B
:103DA0008091D106882389F00CC00E942B1F8823A4
:103DB00019F081E08093D2068091D10681508093E2
:103DC000D1068091D106882381F78091D206813077
:103DD00021F481E089830E9471120F900FBE8981C6
:103DE0000F900F900F90CF91DF910895DF93CF93B5
:103DF00000D0CDB7DEB70FB6F8940F928091CD0604
:103E00009091CE069A8389830F900FBE89819A8103
:103E10000F900F90CF91DF910895DF93CF9300D053
:103E20000F92CDB7DEB719828091CD069091CE0664
:103E30009B838A838A819B810F900F900F90CF91F3
:103E4000DF910895DF93CF93CDB7DEB78091CC0695
:103E5000CF91DF910895DF93CF93CDB7DEB7299748
:103E60000FB6F894DEBF0FBECDBF1D828091D50680
:103E7000882309F0C2C08091CD069091CE060196AC
:103E80009093CE068093CD068091CD069091CE067C
:103E90009C838B838B819C810097D9F48091270729
:103EA000909128079A8389838091290790912A0706
:103EB000909328078093270789819A8190932A07F6
:103EC000809329078091D3068F5F8093D3060E9449
:103ED000F2232091EB013091EC018B819C818217C0
:103EE000930708F471C0E0912707F09128078081BB
:103EF000882339F48FEF9FEF9093EC018093EB01CF
:103F000063C0E0912707F09128070580F681E02D36
:103F10008681978199878887E885F9858281938151
:103F20009F838E832B813C818E819F812817390747
:103F300038F48E819F819093EC018093EB0144C013
:103F40008885998502960E946610E885F98584899E
:103F50009589009729F0888599850C960E946610AE
:103F6000E885F98596898091CF06891728F4E88538
:103F7000F98586898093CF06E885F9858689282F7B
:103F800030E0C901880F991F880F991F880F991F6A
:103F9000820F931FAC014A52594F888599859C0125
:103FA0002E5F3F4FCA01B9010E94B60FE885F9851F
:103FB0009689E091C906F091CA068689981708F497
:103FC00092CF81E08D838FCFE091C906F091CA0630
:103FD0008689282F30E0C901880F991F880F991F03
:103FE000880F991F820F931FFC01EA52F94F8081BD
:103FF000823040F081E08D8305C08091D1068F5FD3
:104000008093D1068091D206882311F081E08D83C0
:104010008D8129960FB6F894DEBF0FBECDBFCF912C
:10402000DF910895DF93CF9300D0CDB7DEB78091B5
:10403000D506882321F081E08093D20657C01092E4
:10404000D20605C08091CF0681508093CF06809123
:10405000CF06282F30E0C901880F991F880F991FBC
:10406000880F991F820F931FFC01EA52F94F80813C
:10407000882341F38091CF06282F30E0C901880FB3
:10408000991F880F991F880F991F820F931F8A52BB
:10409000994F9A838983E981FA810180F281E02D29
:1040A00082819381E981FA8192838183E981FA8116
:1040B0002181328189819A8103962817390759F421
:1040C000E981FA810180F281E02D82819381E98189
:1040D000FA8192838183E981FA810180F281E02D66
:1040E000868197819093CA068093C9060F900F909E
:1040F000CF91DF910895DF93CF9300D000D000D00F
:10410000CDB7DEB79C838B837E836D838091C90698
:104110009091CA069C01245F3F4F8B819C81B9011D
:104120000E94FA0F8091C9069091CA0602960E94D9
:1041300066102091CD063091CE068D819E81820F32
:10414000931F9A83898389819A810E944F2326969F
:104150000FB6F894DEBF0FBECDBFCF91DF910895AB
:10416000DF93CF93CDB7DEB728970FB6F894DEBFB5
:104170000FBECDBF9C838B837E836D8358874F8317
:10418000E091C906F091CA068D819E81906895875D
:1041900084878091C9069091CA069C01245F3F4F95
:1041A0008B819C81B9010E94B60F8091C9069091C4
:1041B000CA0602960E9466102091CD063091CE0666
:1041C0008F819885820F931F9A83898389819A8131
:1041D0000E944F2328960FB6F894DEBF0FBECDBFC6
:1041E000CF91DF910895DF93CF9300D000D00F924D
:1041F000CDB7DEB79D838C83EC81FD810580F68190
:10420000E02D868197819B838A838A819B810C968E
:104210000E9466108091D506882361F58A819B8172
:1042200002960E946610EA81FB8196898091CF06F2
:10423000891728F4EA81FB8186898093CF06EA8179
:10424000FB818689282F30E0C901880F991F880FCC
:10425000991F880F991F820F931FAC014A52594F23
:104260008A819B819C012E5F3F4FCA01B9010E9448
:10427000B60F0AC08A819B819C01245F3F4F8BE26D
:1042800097E0B9010E94B60FEA81FB819689E0911F
:10429000C906F091CA068689891730F481E08983BE
:1042A00081E08093D20601C0198289810F900F901E
:1042B0000F900F900F90CF91DF910895DF93CF93E0
:1042C000CDB7DEB727970FB6F894DEBF0FBECDBFD0
:1042D0009D838C837F836E838E819F819068EC8128
:1042E000FD8191838083EC81FD81868197819B8311
:1042F0008A838C819D810E9466108A819B810296AF
:104300000E946610EA81FB8196898091CF06891709
:1043100028F4EA81FB8186898093CF06EA81FB81BC
:104320008689282F30E0C901880F991F880F991FAF
:10433000880F991F820F931FAC014A52594F8A81EF
:104340009B819C012E5F3F4FCA01B9010E94B60FAD
:10435000EA81FB819689E091C906F091CA068689B7
:10436000891730F481E0898381E08093D20601C00F
:104370001982898127960FB6F894DEBF0FBECDBF94
:10438000CF91DF910895DF93CF9300D0CDB7DEB703
:104390009A8389838091D306E981FA818083809111
:1043A000CD069091CE06E981FA81928381830F90A8
:1043B0000F90CF91DF910895DF93CF93CDB7DEB704
:1043C00027970FB6F894DEBF0FBECDBF9D838C83B9
:1043D0007F836E830FB6F8940F928091CD069091F3
:1043E000CE069A838983EC81FD8190818091D306EA
:1043F000981761F0EC81FD812181328189819A8158
:104400008217930718F081E08B832DC0EC81FD812A
:104410002181328189819A81AC01421B530B9A011F
:10442000EE81FF818081918128173907D0F4EE81D8
:10443000FF8140815181EC81FD812181328189811F
:104440009A81B901681B790BCB01840F951FEE810E
:10445000FF81918380838C819D810E94C3211B8277
:1044600002C081E08B830F900FBE8B8127960FB621
:10447000F894DEBF0FBECDBFCF91DF910895DF93DB
:10448000CF93CDB7DEB781E08093D206CF91DF9195
:104490000895DF93CF9300D0CDB7DEB79A83898399
:1044A0000E9410238091D6068230D0F30E947112B0
:1044B000F7CF0F931F93DF93CF93CDB7DEB72A9734
:1044C0000FB6F894DEBF0FBECDBF9B838A837D837A
:1044D0006C834E8338872F831A870987198221C0FE
:1044E0008981482F50E08981282F30E08C819D817F
:1044F000FC01E20FF31F20818A819B81840F951FAD
:10450000FC01799620838981282F30E08C819D8160
:10451000FC01E20FF31F8081882331F089818F5FD6
:10452000898389818431E0F2EA81FB8114A68E813E
:10453000873010F086E08E83EA81FB818E81868B46
:10454000EA81FB818E8185A7EA81FB8116A68A819B
:104550009B8102960E94A60F8A819B810C960E94E5
:10456000A60FEA81FB818A819B81918780878E815A
:10457000282F30E087E090E0821B930BEA81FB81DB
:1045800095878487EA81FB818A819B81938B828BCB
:104590002A960FB6F894DEBF0FBECDBFCF91DF9144
:1045A0001F910F910895DF93CF930F92CDB7DEB790
:1045B000198213C08981282F30E0C901880F991F03
:1045C000880F991F880F991F820F931F8A52994F46
:1045D0000E947C0F89818F5F89838981873050F3A6
:1045E00085E197E00E947C0F8EE197E00E947C0FAE
:1045F0008BE297E00E947C0F84E397E00E947C0F9F
:1046000085E197E090932807809327078EE197E054
:1046100090932A07809329070F90CF91DF910895F7
:10462000DF93CF9300D00F92CDB7DEB72EC00E949C
:10463000601E809134071B82882311F481E08B83F4
:104640000E946C1E8B81882301F50FB6F8940F929F
:10465000E0913907F0913A07868197819A8389839F
:1046600089819A8102960E9466108091CC068150C1
:104670008093CC068091CB0681508093CB060F901F
:104680000FBE89819A810E94DC238091CB0688230A
:1046900071F60F900F900F90CF91DF910895DF93F7
:1046A000CF9300D0CDB7DEB79A838983E091C90656
:1046B000F091CA0689819A81938382832091CD06E5
:1046C0003091CE0689819A818217930770F4809188
:1046D000290790912A072091C9063091CA062E5FBA
:1046E0003F4FB9010E94FA0F1EC040912707509119
:1046F00028078091C9069091CA069C012E5F3F4F02
:10470000CA01B9010E94FA0F2091EB013091EC012E
:1047100089819A818217930730F489819A819093D5
:10472000EC018093EB010F900F90CF91DF910895F2
:10473000DF93CF93CDB7DEB728970FB6F894DEBFDF
:104740000FBECDBF9C838B837E836D838FE290E011
:104750000E942E0E9A83898389819A81009709F19C
:104760008D819E81009739F48B819C810E942E0E51
:1047700098878F8304C08D819E8198878F83E9817C
:10478000FA818F819885908F878BE981FA8187895B
:10479000908D009731F489819A810E94840E1A824B
:1047A000198289819A8128960FB6F894DEBF0FBED0
:1047B000CDBFCF91DF910895DF93CF9300D0CDB7D8
:1047C000DEB79A838983E981FA818789908D0E9477
:1047D000840E89819A810E94840E0F900F90CF9150
:1047E000DF910895DF93CF9300D0CDB7DEB7E0918E
:1047F0002707F09128078081882339F48FEF9FEFF6
:104800009093EC018093EB0113C0E0912707F091A6
:1048100028070580F681E02D868197819A83898318
:10482000E981FA81828193819093EC018093EB017D
:104830000F900F90CF91DF910895DF93CF9300D029
:10484000CDB7DEB78091C9069091CA069A83898355
:1048500089819A810F900F90CF91DF910895DF9316
:10486000CF9300D000D0CDB7DEB79C838B838B81F4
:104870009C819A8389838B819C81009709F473C002
:10488000E981FA819689E091C906F091CA06868984
:10489000981708F068C0E981FA8184859585992385
:1048A0007CF0E091C906F091CA068689282F30E095
:1048B00087E090E0821B930BE981FA8195878487DA
:1048C000E981FA8142855385E981FA818689282F19
:1048D00030E0C901880F991F880F991F880F991F11
:1048E000820F931F8A52994F48175907A1F5898162
:1048F0009A8102960E946610E091C906F091CA065C
:104900008689E981FA81868BE981FA81968980918D
:10491000CF06891728F4E981FA8186898093CF062A
:10492000E981FA818689282F30E0C901880F991F13
:10493000880F991F880F991F820F931FAC014A524D
:10494000594F89819A819C012E5F3F4FCA01B9015D
:104950000E94B60F08C0E091C906F091CA06868988
:10496000E981FA81868B0F900F900F900F90CF9175
:10497000DF910895DF93CF9300D000D00F92CDB791
:10498000DEB79D838C838C819D819B838A83198272
:104990008C819D81009709F456C0EA81FB8186A530
:1049A0008150EA81FB8186A7EA81FB819689EA81B1
:1049B000FB8185A5981709F446C0EA81FB8186A58D
:1049C000882309F040C08A819B8102960E9466106C
:1049D000EA81FB8185A5EA81FB81868BEA81FB81E7
:1049E0008689282F30E087E090E0821B930BEA81D4
:1049F000FB8195878487EA81FB8196898091CF0628
:104A0000891728F4EA81FB8186898093CF06EA81A1
:104A1000FB818689282F30E0C901880F991F880FF4
:104A2000991F880F991F820F931FAC014A52594F4B
:104A30008A819B819C012E5F3F4FCA01B9010E9470
:104A4000B60F81E0898389810F900F900F900F90AE
:104A50000F90CF91DF910895DF93CF9300D0CDB722
:104A6000DEB7E091C906F091CA06848595859A83E0
:104A70008983A091C906B091CA06E091C906F09158
:104A8000CA068689282F30E087E090E0821B930BCE
:104A90001D969C938E931C9789819A810F900F90FD
:104AA000CF91DF910895DF93CF93CDB7DEB780919B
:104AB000C9069091CA06009739F0E091C906F091B5
:104AC000CA0686A58F5F86A78091C9069091CA06FF
:104AD000CF91DF910895DF93CF93CDB7DEB7E7E2B3
:104AE000F0E080818F7380648083E6E2F0E0808173
:104AF00087608083E6E2F0E0808180688083CF91E8
:104B0000DF910895DF93CF930F92CDB7DEB78983FE
:104B1000E7E2F0E089818F71982F9F718081807E1C
:104B2000892B8083E6E2F0E0808180648083E6E286
:104B3000F0E0808180748823D1F7E4E2F0E08081A6
:104B400091810F90CF91DF910895DF93CF930F92D2
:104B5000CDB7DEB78983AAE3B0E0EAE3F0E0808175
:104B6000482F8981282F30E081E090E002C0880F33
:104B7000991F2A95E2F7842B8C9389810E94E12565
:104B80000F90CF91DF910895DF93CF930F92CDB720
:104B9000DEB78983ABE3B0E0EBE3F0E08081482F40
:104BA0008981282F30E081E090E0022E02C0880F3A
:104BB000991F0A94E2F7842B8C930F90CF91DF9189
:104BC0000895DF93CF930F92CDB7DEB78983ABE320
:104BD000B0E0EBE3F0E08081482F8981282F30E0BE
:104BE00081E090E0022E02C0880F991F0A94E2F73C
:104BF000809584238C930F90CF91DF910895DF935C
:104C0000CF930F92CDB7DEB78983ABE3B0E0EBE390
:104C1000F0E08081482F8981282F30E081E090E00A
:104C2000022E02C0880F991F0A94E2F784278C9302
:104C30000F90CF91DF910895DF93CF930F92CDB76F
:104C4000DEB78983AAE3B0E0EAE3F0E090818981EE
:104C5000892B8C9389810E9443260F90CF91DF91FD
:104C60000895DF93CF930F92CDB7DEB78983ABE37F
:104C7000B0E0EBE3F0E090818981892B8C930F9079
:104C8000CF91DF910895DF93CF930F92CDB7DEB729
:104C90008983ABE3B0E0EBE3F0E08081982F89817A
:104CA000809589238C930F90CF91DF910895DF93A6
:104CB000CF930F92CDB7DEB78983ABE3B0E0EBE3E0
:104CC000F0E09081898189278C930F90CF91DF91BB
:104CD0000895DF93CF930F92CDB7DEB7EAE3F0E00C
:104CE0008081EAE3F0E08FEF80830E948B260F90B3
:104CF000CF91DF910895DF93CF930F92CDB7DEB7B9
:104D0000EBE3F0E08081EBE3F0E08FEF80830F9046
:104D1000CF91DF910895DF93CF930F92CDB7DEB798
:104D2000EBE3F0E08081EBE3F0E010820F90CF91B5
:104D3000DF910895DF93CF93CDB7DEB7ABE3B0E05B
:104D4000EBE3F0E0808180958C93CF91DF91089523
:104D5000DF93CF930F92CDB7DEB78983A1E3B0E0A5
:104D6000E1E3F0E08081482F8981282F30E081E065
:104D700090E002C0880F991F2A95E2F7809584235E
:104D80008C93A2E3B0E0E2E3F0E08081482F8981D8
:104D9000282F30E081E090E0022E02C0880F991F9A
:104DA0000A94E2F7842B8C930F90CF91DF910895B2
:104DB000DF93CF9300D0CDB7DEB78983E0E3F0E097
:104DC0008081282F30E08981882F90E0A90102C0DE
:104DD000559547958A95E2F7CA01817090701A82BD
:104DE000009711F451E05A838A810F900F90CF9170
:104DF000DF910895DF93CF93CDB7DEB7A1E3B0E0A5
:104E0000E1E3F0E0808180688C930E941827CF91C5
:104E1000DF910895DF93CF93CDB7DEB7A2E3B0E083
:104E2000E2E3F0E0808180688C93CF91DF91089578
:104E3000DF93CF93CDB7DEB7A2E3B0E0E2E3F0E0DB
:104E400080818F778C93CF91DF910895DF93CF93FB
:104E5000CDB7DEB7A2E3B0E0E2E3F0E0908180E816
:104E600089278C93CF91DF910895DF93CF9300D062
:104E700000D000D0CDB7DEB789836A835C834B83D3
:104E80008981282F30E03E832D838D819E8186305D
:104E9000910561F02D813E812730310521F18D8111
:104EA0009E818530910509F442C063C0A5E5B0E05C
:104EB000E5E5F0E080818C7F8C93A5E5B0E0E5E549
:104EC000F0E090818A81892B8C938B819C819093D7
:104ED0004E0780934D07ABE5B0E0EBE5F0E0808155
:104EE00080648C9346C0A5E5B0E0E5E5F0E0808104
:104EF000837F8C93A5E5B0E0E5E5F0E08081282F85
:104F00008A81882F90E0880F991F880F991F822B24
:104F10008C938B819C819093500780934F07ABE5D6
:104F2000B0E0EBE5F0E0808180688C9322C08A815C
:104F3000833041F4A4E5B0E0E4E5F0E080818064F2
:104F40008C930AC08A818230A9F4A4E5B0E0E4E53C
:104F5000F0E080818F7B8C938B819C8190935207B2
:104F600080935107ABE5B0E0EBE5F0E08081806233
:104F70008C93789426960FB6F894DEBF0FBECDBF03
:104F8000CF91DF9108951F920F920FB60F921124C7
:104F90002F933F934F935F936F937F938F939F9341
:104FA000AF93BF93EF93FF93DF93CF93CDB7DEB76C
:104FB000E0914D07F0914E070995CF91DF91FF9158
:104FC000EF91BF91AF919F918F917F916F915F9181
:104FD0004F913F912F910F900FBE0F901F901895FA
:104FE0001F920F920FB60F9211242F933F934F935E
:104FF0005F936F937F938F939F93AF93BF93EF9341
:10500000FF93DF93CF93CDB7DEB7E0914F07F091D9
:1050100050070995CF91DF91FF91EF91BF91AF912B
:105020009F918F917F916F915F914F913F912F91C0
:105030000F900FBE0F901F9018951F920F920FB6F2
:105040000F9211242F933F934F935F936F937F930E
:105050008F939F93AF93BF93EF93FF93DF93CF9380
:10506000CDB7DEB7E0915107F09152070995CF9186
:10507000DF91FF91EF91BF91AF919F918F917F91C0
:105080006F915F914F913F912F910F900FBE0F90B5
:105090001F901895DF93CF93CDB7DEB72E970FB63D
:1050A000F894DEBF0FBECDBFA4E3B0E0E4E3F0E0D0
:1050B0008081806F8C93A7E3B0E0E7E3F0E080812C
:1050C00082608C93A7E3B0E0E7E3F0E08081816049
:1050D0008C9380E090E0A8ECB2E48B879C87AD874E
:1050E000BE876B857C858D859E8520E030E04AEF0C
:1050F00054E40E941F02DC01CB018F839887A987AB
:10510000BA876F81788589859A8520E030E040E80C
:105110005FE30E94250488232CF481E090E09E83C5
:105120008D833FC06F81788589859A8520E03FEF28
:105130004FE757E40E94C50318164CF56B857C8534
:105140008D859E8520E030E040E251E40E941F0200
:10515000DC01CB01BC01CD010E944900DC01CB0187
:105160009E838D830FC088EC90E09C838B838B8122
:105170009C810197F1F79C838B838D819E810197A0
:105180009E838D838D819E81009769F714C06F8106
:10519000788589859A850E944900DC01CB019E8330
:1051A0008D838D819E819A83898389819A810197DC
:1051B000F1F79A83898382E00E94DF2988E20E94C6
:1051C000DF298CE00E94DF2986E00E94DF290E940F
:1051D000F2282E960FB6F894DEBF0FBECDBFCF914A
:1051E000DF910895DF93CF93CDB7DEB72E970FB63B
:1051F000F894DEBF0FBECDBF81E00E94DF2980E0C2
:1052000090E0A0EAB0E48B879C87AD87BE876B8572
:105210007C858D859E8520E030E04AEF54E40E9435
:105220001F02DC01CB018F839887A987BA876F8122
:10523000788589859A8520E030E040E85FE30E9428
:10524000250488232CF481E090E09E838D833FC069
:105250006F81788589859A8520E03FEF4FE757E495
:105260000E94C50318164CF56B857C858D859E853F
:1052700020E030E040E251E40E941F02DC01CB015B
:10528000BC01CD010E944900DC01CB019E838D83CE
:105290000FC088EC90E09C838B838B819C8101976D
:1052A000F1F79C838B838D819E8101979E838D83F3
:1052B0008D819E81009769F714C06F8178858985FB
:1052C0009A850E944900DC01CB019E838D838D81EC
:1052D0009E819A83898389819A810197F1F79A83C4
:1052E00089832E960FB6F894DEBF0FBECDBFCF9147
:1052F000DF910895DF93CF930F92CDB7DEB7898307
:1053000089810E94D42A0F90CF91DF910895DF9375
:10531000CF9300D00F92CDB7DEB79B838A831982DB
:105320000EC08981282F30E08A819B81FC01E20F29
:10533000F31F80810E94D42A89818F5F89838981AC
:10534000282F30E08A819B81FC01E20FF31F8081CE
:10535000882339F70F900F900F90CF91DF91089528
:10536000DF93CF9300D00F92CDB7DEB789836A83E6
:105370004B8389816A810E94C92B8B810E947A2983
:105380000F900F900F90CF91DF910895DF93CF93FF
:1053900000D000D0CDB7DEB789836A835C834B83AE
:1053A00089816A810E94C92B8B819C810E948729F7
:1053B0000F900F900F900F90CF91DF910895DF9392
:1053C000CF93CDB7DEB769970FB6F894DEBF0FBEA7
:1053D000CDBF898FA8E3B0E0E8E3F0E080818D7F66
:1053E0008C93E5E3F0E0898D82958F708F70982F14
:1053F0009295907F80818F70892B80830E94E12B12
:10540000E5E3F0E0898D8F70982F9295907F8081F1
:105410008F70892B80830E94E12B80E090E0A0E2D6
:10542000B2E48D8B9E8BAF8BB88F6D897E898F890F
:10543000988D2BEA3AEA4AE250E40E941F02DC010E
:10544000CB01898B9A8BAB8BBC8B69897A898B89D1
:105450009C8920E030E040E85FE30E942504882337
:105460001CF481E0888B91C069897A898B899C8939
:1054700020E030E04FE753E40E94C50318160CF01B
:105480007BC06D897E898F89988D20E030E04AE766
:1054900054E40E941903DC01CB018C879D87AE8701
:1054A000BF876C857D858E859F8520E030E04AEF43
:1054B00054E40E941F02DC01CB0188879987AA87E8
:1054C000BB87688579858A859B8520E030E040E848
:1054D0005FE30E94250488232CF481E090E09F8301
:1054E0008E833FC0688579858A859B8520E03FEF64
:1054F0004FE757E40E94C50318164CF56C857D856F
:105500008E859F8520E030E040E251E40E941F023A
:10551000DC01CB01BC01CD010E944900DC01CB01C3
:105520009F838E830FC088EC90E09D838C838C8159
:105530009D810197F1F79D838C838E819F810197D7
:105540009F838E838E819F81009769F724C0688531
:1055500079858A859B850E944900DC01CB019F8368
:105560008E838E819F819B838A838A819B81019711
:10557000F1F79B838A830FC069897A898B899C891B
:105580000E944900DC01CB01888B8889898389814D
:105590008A95F1F7898369960FB6F894DEBF0FBE3E
:1055A000CDBFCF91DF910895DF93CF93CDB7DEB715
:1055B00069970FB6F894DEBF0FBECDBF898FA8E301
:1055C000B0E0E8E3F0E0808182608C93E5E3F0E016
:1055D000898D82958F708F70982F9295907F8081A2
:1055E0008F70892B80830E94E12BE5E3F0E0898DA9
:1055F0008F70982F9295907F80818F70892B8083F8
:105600000E94E12B80E090E0A0E2B2E48D8B9E8BC3
:10561000AF8BB88F6D897E898F89988D2BEA3AEA96
:105620004AE250E40E941F02DC01CB01898B9A8B75
:10563000AB8BBC8B69897A898B899C8920E030E0AF
:1056400040E85FE30E94250488231CF481E0888BF6
:1056500091C069897A898B899C8920E030E04FE785
:1056600053E40E94C50318160CF07BC06D897E8937
:105670008F89988D20E030E04AE754E40E941903B6
:10568000DC01CB018C879D87AE87BF876C857D85CC
:105690008E859F8520E030E04AEF54E40E941F028F
:1056A000DC01CB0188879987AA87BB8768857985C4
:1056B0008A859B8520E030E040E85FE30E94250476
:1056C00088232CF481E090E09F838E833FC068851F
:1056D00079858A859B8520E03FEF4FE757E40E945C
:1056E000C50318164CF56C857D858E859F8520E059
:1056F00030E040E251E40E941F02DC01CB01BC011A
:10570000CD010E944900DC01CB019F838E830FC035
:1057100088EC90E09D838C838C819D810197F1F7CB
:105720009D838C838E819F8101979F838E838E8141
:105730009F81009769F724C0688579858A859B8554
:105740000E944900DC01CB019F838E838E819F8163
:105750009B838A838A819B810197F1F79B838A834C
:105760000FC069897A898B899C890E944900DC0174
:10577000CB01888B8889898389818A95F1F7898310
:1057800069960FB6F894DEBF0FBECDBFCF91DF9103
:105790000895DF93CF9300D0CDB7DEB789836A83B6
:1057A0008981813029F48A8181580E94DF2904C0CF
:1057B0008A8181540E94DF290F900F90CF91DF9151
:1057C0000895DF93CF93CDB7DEB7A8E3B0E0E8E369
:1057D000F0E0808181608C93A8E3B0E0E8E3F0E042
:1057E00080818E7F8C93CF91DF910895DF93CF934B
:1057F000CDB7DEB72F970FB6F894DEBF0FBECDBF83
:105800006C877D878E879F878BE0FE013196DF0155
:10581000982F1D929A95E9F78C859D859E012F5FA3
:105820003F4FB9014AE050E00E94EC36CE010196AC
:105830000E9487292F960FB6F894DEBF0FBECDBF0A
:10584000CF91DF910895DF93CF9300D000D000D0A7
:10585000CDB7DEB789836A832B833C834D835E8318
:1058600089816A810E94C92B8B819C81AD81BE8117
:10587000BC01CD010E94F62B26960FB6F894DEBF30
:105880000FBECDBFCF91DF910895DF93CF9300D0AE
:105890000F92CDB7DEB789838981282F30E03B8313
:1058A0002A838A819B810097D9F02A813B8121300C
:1058B000310559F5A7E3B0E0E7E3F0E08081806BC4
:1058C0008C93A7E3B0E0E7E3F0E080818F7B8C93DB
:1058D000ADE2B0E0EDE2F0E0808180618C9315C034
:1058E000A7E3B0E0E7E3F0E080818F748C93A7E357
:1058F000B0E0E7E3F0E0808180648C93ADE2B0E05B
:10590000EDE2F0E080818F7E8C93ADE2B0E0EDE2DD
:10591000F0E0808180648C930F900F900F90CF9176
:10592000DF910895DF93CF930F92CDB7DEB78983D0
:10593000EFE2F0E089818083EEE2F0E0808188236D
:10594000DCF7EFE2F0E080810F90CF91DF910895D6
:105950000F931F93DF93CF9300D000D0CDB7DEB766
:1059600069837A838B839C8300E210E080E092E17C
:10597000AAE7B0E029813A814B815C81BC01CD016D
:105980000E946F36DA01C9014097A109B109B695A5
:10599000A79597958795F8018083A6E5B0E0E6E5A1
:1059A000F0E0808184608C930F900F900F900F90A7
:1059B000CF91DF911F910F910895DF93CF930F92B5
:1059C000CDB7DEB71982E6E5F0E084EA80830E9475
:1059D000222DE1E2F0E08081882F90E0887F9070B6
:1059E0008830910511F481E0898389810F90CF91EE
:1059F000DF910895DF93CF930F92CDB7DEB7198271
:105A0000E6E5F0E084EA80830E94222DE1E2F0E006
:105A10008081882F90E0887F90708031910511F40B
:105A200081E0898389810F90CF91DF910895DF9381
:105A3000CF93CDB7DEB7E6E5F0E084E98083CF9180
:105A4000DF910895DF93CF93CDB7DEB7E6E5F0E0C1
:105A500080818823DCF7CF91DF910895DF93CF9386
:105A600000D00F92CDB7DEB78A836B831982E3E251
:105A7000F0E08A818083E6E5F0E084E880830E949C
:105A8000222DE1E2F0E08081882F90E09C01287FC8
:105A900030708B81882F90E02817390711F481E04E
:105AA000898389810F900F900F90CF91DF91089596
:105AB000DF93CF9300D000D0CDB7DEB79B838A832E
:105AC0006C831982E6E5F0E084E88083E1E2F0E0AF
:105AD0008081882F90E0887F90708035910539F41F
